:020000040800F2
:100000004007002099010008F314000815110008AA
:10001000F1140008D7040008AD1700080000000024
:100020000000000000000000000000008916000829
:10003000F104000800000000F5140008A3160008F1
:10004000B3010008B3010008B3010008B3010008C0
:10005000B3010008B3010008B3010008B3010008B0
:10006000B3010008B3010008B3010008B3010008A0
:10007000B3010008B3010008B3010008B301000890
:10008000B3010008B3010008B3010008B301000880
:10009000B3010008B3010008B3010008B301000870
:1000A000B3010008B3010008B3010008B301000860
:1000B000B3010008B3010008B3010008B301000850
:1000C000B3010008B3010008B3010008B301000840
:1000D000B3010008B3010008B3010008B301000830
:1000E000B3010008B3010008B301000800F002F8F2
:1000F00000F043F80AA090E8000C82448344AAF17F
:100100000107DA4501D100F038F8AFF2090EBAE87C
:100110000F0013F0010F18BFFB1A43F0010318473B
:10012000881D0000A81D0000103A24BF78C878C1BF
:10013000FAD8520724BF30C830C144BF04680C60ED
:10014000704700000023002400250026103A28BF35
:1001500078C1FBD8520728BF30C148BF0B60704739
:100160001FB500F04BF904000020002101F070FEE3
:10017000401C60601FBD10B510BD00F01AF911469B
:10018000FFF7EEFF01F03EFB00F04AF903B4FFF782
:10019000F2FF03BC00F08EF9094880470948004788
:1001A000FEE7FEE7FEE7FEE7FEE7FEE7FEE7FEE727
:1001B000FEE7FEE704480549054A064B7047000084
:1001C000F3160008ED000008400100204007002061
:1001D000400300204003002070B5064600F052F8AE
:1001E0000468054630460A22002100F04FF82C60D2
:1001F00070BD10B5431C02E010F8011B71B18107FE
:10020000FAD14FF0013202C88C1A8C4314EAC211A1
:10021000F9D0C01A0A0603D0C01E10BDC01A10BD06
:100220000A0401D0801E10BD0902FCD0401E10BD82
:100230004FF0000200B5134694469646203922BF7F
:10024000A0E80C50A0E80C50B1F12001BFF4F7AFCA
:10025000090728BFA0E80C5048BF0CC05DF804EBAC
:10026000890028BF40F8042B08BF704748BF20F81A
:10027000022B11F0804F18BF00F8012B7047704718
:100280007047704700487047E00000202DE9F047B4
:1002900091460F4680460446002614F8015B2DB1B6
:1002A00000F030F80068405DC007F6D12B2D02D079
:1002B0002D2D18D0641E4A463946204600F02AF8F3
:1002C00027B13968A14201D1C7F800804FF002047C
:1002D00071050BD54042002803DDFFF7D3FF046012
:1002E000A007BDE8F08746F48066E4E70028F8DA66
:1002F000FFF7C8FF04606FF00040F2E70048704766
:10030000E000002010B500F079F8001D10BD00BF1E
:10031000411B00002DE9F05F824615468B46002701
:100320000AF10104B9460078302801D09DB113E0EC
:1003300014F8010B0127782803D0582801D045B1C3
:100340000AE00DB1102D07D1002714F8010B10257C
:1003500002E0082500E00A250026B0460EE005FB75
:10036000080005FB06F101271FFA80F801EB104693
:10037000B6F5803F00D3B94614F8010B294600F0CA
:1003800041F80028EBDABBF1000F05D00FB1641E75
:1003900000E05446CBF80040B9F1000F06D0FFF75B
:1003A00071FF02210160C81EBDE8F09F48EA0640C7
:1003B000FAE77546FFF7A2FFAE46050069465346C9
:1003C00020F00700854618B020B5FFF7F3FEBDE822
:1003D00020404FF000064FF000074FF000084FF0AC
:1003E000000B21F00701AC46ACE8C009ACE8C0093D
:1003F000ACE8C009ACE8C0098D46704700487047BA
:10040000000100203A2800D2303820F02002412A92
:1004100001D3A2F13700884201D34FF0FF3070477B
:1004200010B50446AFF300802046BDE81040FFF74A
:10043000ADBE00004FF0013C50F8042B51F8043BD6
:100440009A4221D1A2EB0C03934313EACC1317D1A8
:1004500050F8042B51F8043B9A4215D1A2EB0C033F
:10046000934313EACC130BD150F8042B51F8043BFF
:100470009A4209D1A2EB0C03934313EACC13DBD0CD
:100480004FF00000704700BFD01A01BAB1FA81F1F5
:1004900001F0180122FA01F0CB40C1F12001DBB2DA
:1004A000C0B2C01A2CFA01F3D11A914311EAC31158
:1004B000E6D1704701491820ABBEFEE726000200D6
:1004C000704710B5142001F057F80321BDE8104023
:1004D000142001F0DAB8FEE770B50C46054601F0CD
:1004E0004BF820EA04012846BDE8704001F060B9ED
:1004F0007047000070B5044600F008F90546601C1E
:1005000002D004480078044400F000F9401BA042E7
:10051000FAD370BD200000202DE9F84FDFF8B89124
:100520000024A9F1040B23460F2709F1040AABF1BB
:10053000040EC9E00125A5402A40AA427DD1674E9C
:10054000D1F804C0ACEB0608B44532D014DCBCF1E1
:10055000030F3AD009DCBCF1000F2AD0BCF1010F27
:100560001CD0BCF1020F31D11DE0BCF1110F17D02E
:10057000BCF1120F2AD119E0B8F5881F19D006DC9A
:10058000B8F5803F15D0B8F5801F1FD111E0B8F540
:10059000001F0ED0B8F5041F18D10AE0CB6815E093
:1005A000CB681B1D12E0CB6808330FE0CB680C331F
:1005B0000CE08B682BB1012B4FF0080303D0456191
:1005C00004E0042302E0056100E00023FF2A01D8D3
:1005D000064601E000F104064FEA840501D9A5F1C1
:1005E0002005D6F8008007FA05FC28EA0C0803FA73
:1005F00005F548EA0508C6F800804D68ED0062D5AB
:10060000374DAE6946F00106AE61AD6924F00306D0
:1006100005F001050095334D06EB050CDCF808509C
:10062000A607360F07FA06F825EA0805DFF8B880AE
:10063000404503D14FF0000817E044E0DFF8AC80FC
:10064000404502D14FF001080FE0DFF8A48040459B
:1006500002D14FF0020808E0DFF89880404502D14F
:100660004FF0030801E04FF0040808FA06F848EAE2
:100670000508CCF808804D68D9F80060ED024D46B9
:1006800001D5164300E096432E604D68DAF800600D
:10069000AD02554601D5164300E096432E604D68E5
:1006A000DBF80060AD035D4601D5164300E09643DC
:1006B0002E604D68DEF80060ED03754601D51643E7
:1006C00000E096432E60641C0D682A46E5407FF4E6
:1006D00031AFBDE8F88F00000804014000001110A0
:1006E000001002400000014000080140000C0140E1
:1006F00000100140001401408068084000D0012033
:1007000070470AB1016170470904FBE7014880683E
:1007100070470000200000200248816802781144E0
:100720008160704720000020074810B5016841F043
:1007300010010160032000F067F80F2000F006F8B8
:1007400000F024F8002010BD0020024070B50D4DCF
:1007500004464FF47A712878B1FBF0F00A49096831
:10076000B1FBF0F000F057FC48B9102C07D2002282
:100770002146501E00F028F800206C6070BD01205A
:1007800070BD0000200000202C0000200C4808B59F
:10079000816941F001018161816901F001010091EC
:1007A000C16941F08051C161C06900F08050009082
:1007B0000448416821F0E06141F00071416008BDEA
:1007C0000010024000000140F0B40E4B1B680C46C4
:1007D000C3F30223C3F10705042D00D90425191D15
:1007E000072901D2002300E0DB1E012606FA05F1ED
:1007F000491E214099409E40761E16403143F0BC70
:1008000000F0F0BF0CED00E0064900F007020868B8
:100810004FF6FF03184040EA0220034A10430860E5
:10082000704700000CED00E00000FA052DE9F047EC
:100830000F46050061D0434E306800F00700B84213
:1008400009D2306820F0070038433060306800F08B
:100850000700B84251D128683B4C810712D54007A8
:1008600003D5606840F4E06060602878000703D535
:10087000606840F4605060606068A96820F0F00033
:10088000084360602878C00728D06868012810D025
:100890002168022810D0890700292EDA616821F02A
:1008A000030101436160FFF731FF804641F288395F
:1008B0000DE021688903EFE78901EDE7FFF726FFE7
:1008C000A0EB0801494502D90320BDE8F087606824
:1008D000696800F00C00B0EB810FEFD1306800F0D8
:1008E0000700B8420BD9306820F007003843306069
:1008F000306800F00700B84201D00120E5E7287811
:10090000400705D56068E96820F4E060084360604E
:100910002878000706D56068296920F4605040EA0D
:10092000C100606000F038F86168084AC1F3031143
:10093000515CC8400649086006480068FFF706FF9A
:100940000020C2E700200240001002408E1E000876
:100950002C00002024000020044805490068496854
:10096000044AC1F30221515CC84070472C000020AA
:10097000001002409E1E00080448054900684968AE
:10098000044AC1F3C221515CC84070472C000020CA
:10099000001002409E1E00080E4A51680E4801F0E9
:1009A0000C03042B11D0082B0FD10C48C1F3834347
:1009B000C903C05C0AD55168084AC1F34041921E80
:1009C000515C054A5043B0FBF1F07047044948437D
:1009D000704700000010024000127A007E1E0008DE
:1009E00000093D002DE9F84F040070D02078C04D7B
:1009F000C00749D06868C0F38100012807D0686843
:100A0000C0F38100022809D16868C00306D52868B0
:100A1000800339D560680028E7D035E06068B0F51C
:100A2000803F0BD010B1B0F5A02F11D0286820F472
:100A300080302860286820F4802002E0286840F494
:100A400080302860606890B1FFF760FE06460AE0DB
:100A5000286840F480202860F0E700BFFFF756FECA
:100A6000801B642873D828688003F7D50CE0FFF753
:100A70004DFE064605E000BFFFF748FE801B6428D8
:100A8000F0D828688003F7D420789A4E80074FF07A
:100A900001094FF0000839D5686810F00C0F07D035
:100AA0006868C0F38100022809D16868C00306D4D1
:100AB0002868800714D52069012808D110E0206932
:100AC000B0B1C6F80090FFF721FE074605E00AE145
:100AD000FFF71CFEC01B0228C4D828688007F7D582
:100AE0002868616920F0F80040EAC10028600DE044
:100AF000C6F80080FFF70AFE074604E0FFF706FE8F
:100B0000C01B022823D828688007F7D42078000764
:100B10002CD57948A169D9B1C0F80090FFF7F6FD4E
:100B2000074604E0FFF7F2FDC01B02280FD8686AF1
:100B30008007F7D571484FF4FA510068B0FBF1F027
:100B4000009000BF0098411E0091FAD20EE080E0B4
:100B5000C0F80080FFF7DAFD074604E0FFF7D6FD96
:100B6000C01B022875D8686A8007F7D42078400730
:100B700060D5E8690027C00008D4E86940F08050DB
:100B8000E861E869012700F0805000905C48016846
:100B9000C90513D40168834641F480710160FFF7F1
:100BA000B5FD824606E000BFFFF7B0FDA0EB0A00EE
:100BB00064284ED8DBF80000C005F5D5E0680128B0
:100BC0000AD008B1052813D0286A20F00100286255
:100BD000286A20F0040002E0286A40F00100286240
:100BE000E06841F2883B98B1FFF790FD82460BE048
:100BF000286A40F004002862EEE700BFFFF786FD98
:100C0000A0EB0A0159455AD8286A8007F6D50CE0AE
:100C1000FFF77CFD824605E0FFF778FDA0EB0A01B7
:100C200059454CD8286A8007F6D41FB1E86920F0EE
:100C30008050E861E06988B36968C1F381010229E5
:100C400044D00228C6F8608004D0FFF75FFD044658
:100C500038E034E0FFF75AFD074604E0FFF756FDA1
:100C6000C01B02282BD828688001F7D4206AB0F571
:100C7000803F05D16868A16820F4003008436860AF
:100C8000D4E908010843696821F4741108436860D5
:100C9000C6F86090FFF73AFD044606E025E000BF85
:100CA000FFF734FD001B022809D828688001F7D51A
:100CB0001BE000BFFFF72AFD001B022802D903201A
:100CC000BDE8F88F28688001F4D40EE00128F7D041
:100CD0006868226A00F48031914204D1616A00F4AC
:100CE0007010884201D00120EAE70020E8E7000008
:100CF0000010024000004242800442422C000020CA
:100D00000070004070B5040009D0606A002540B151
:100D100025616561A56294F8510040B10CE00120A5
:100D200070BD6068B0F5827FF4D0E561F2E784F8C9
:100D30005050204600F040F8022084F8510020680E
:100D4000016821F040010160A088218900F48270CF
:100D500001F404410843A18901F400610843217CA6
:100D600001F002010843217D01F001010843218BBC
:100D700001F400710843217F01F03801084394F821
:100D8000201001F080010843218D01F40051084337
:100D900021680860A069042101EA104021684860C8
:100DA0002068C16921F40061C1616565012084F892
:100DB0005100002070BD000030B585B000240094C3
:100DC00001940294039400681449884223D1144882
:100DD000816941F480518161816901F480510491FC
:100DE000816941F00401816180690E4D00F00400C9
:100DF0000490A020009002200190032003906946F7
:100E00002846FFF789FB4020CDE9000469462846C3
:100E10000294FFF781FB05B030BD000000300140B7
:100E200000100240000801402DE9FF4F81B0044648
:100E300090F8500000260E9F1D4693464FF0010982
:100E400001280FD04FF0010A84F850A0FFF75EFC94
:100E5000804694F85100616801280DD0B1F5827F79
:100E600008D103E0022005B0BDE8F08FA16809B900
:100E7000042801D00226C9E00298002865D0BBF101
:100E8000000FFBD0002DF9D094F85100042802D0B7
:100E9000052084F8510000206065C4F838B0E5876B
:100EA000A58702992163E586A58620646064206891
:100EB0000168490603D4016841F040010160E0681F
:100EC000B0F5006F606803D0F0B3012D47D081E02A
:100ED00008B1012D3CD1206B21680088C860206BCF
:100EE000801C2063E08E401EE08631E0206881682F
:100EF00089070FD5E18E69B1B9F1010F0AD1216BD4
:100F00000988C160206B801C2063E08E401EE08653
:100F10004FF0000920688168C9070CD0E18F51B1FA
:100F2000C068A16B0880A06B801CA063E08F401E8E
:100F3000E0874FF00109FFF7E9FBA0EB0800B8429A
:100F400006D3781C04D001E009E05BE003265BE0F7
:100F5000E08E0028CAD1E08F0028C7D140E0206B86
:100F6000216800780873206B401C2063E08E401ECF
:100F7000E0862FE02068816889070FD5E18E69B18E
:100F8000B9F1010F0AD1216B09780173206B401C64
:100F90002063E08E401EE0864FF0000920688168E3
:100FA000C9070CD0E18F51B1C068A16B0870A06B6C
:100FB000401CA063E08F401EE0874FF00109FFF75F
:100FC000A5FBA0EB0800B84202D3781C02D0BAE718
:100FD000002FB8D0E08E0028CCD1E08F0028C9D1F6
:100FE00042463946204600F0E3FA18B10126202097
:100FF00060650BE0A06818B92068C168806800903F
:10100000606D08B1012601E084F851A0002084F849
:101010005000304627E710B5401EB0F1807F01D365
:10102000012010BD4FF0E02460610F21601700F037
:10103000D9FB0020A06107202061002010BD70B501
:10104000040004D094F84100002510B106E001200E
:1010500070BD84F84050204600F024F8242084F825
:1010600041002068C16821F40051C160204600F0B1
:1010700041FB2068016921F49041016120684169C8
:1010800021F02A0141612068C16841F40051C1602A
:101090006564202084F8410084F8420065630020E4
:1010A00070BD000030B585B0002400940194029416
:1010B000039400681449884224D11448816941F49A
:1010C00080418161816901F480410491816941F02D
:1010D0000401816180690E4D00F0040004904FF41A
:1010E000007000900220019003200390694628467A
:1010F000FFF712FA2815CDE9000469462846029444
:10110000FFF70AFA05B030BD003801400010024078
:1011100000080140FEE7000010B50A4C00224FF421
:1011200080712046FFF7EDFA002261152046FFF797
:10113000E8FA012000F06CF80120FFF7DBF901204C
:1011400010BD0000000C014070B50A4E0C4605466B
:1011500000224FF480713046FFF7D3FA0022711558
:101160003046FFF7CEFA05EB8410803000F050F8DF
:10117000012070BD000C014010B50F20FFF7BAF937
:10118000184C00224FF480712046FFF7BAFA002273
:1011900061152046FFF7B5FA302000F0ADF90520C3
:1011A000FFF7A8F9302000F0A7F90120FFF7A2F916
:1011B000302000F0A1F90120FFF79CF9202000F079
:1011C0009BF9282000F024F8082000F021F80120E5
:1011D00000F01EF8062000F01BF80C2000F018F8B4
:1011E000012010BD000C014070B50546012211021E
:1011F0000648FFF786FA002403E000BF00F008F875
:10120000641C285D0028F9D1012070BD000C01404C
:1012100010B5044600F070F9200100F06DF9BDE84A
:1012200010400120FFF766B97CB504460025294629
:101230000D2000F0BDFA932020702020607001A8DE
:1012400023460090022219460C2000F057F80100B6
:1012500009D1225C401C5540C0B20428F9D3205C5F
:10126000A84200D0022108467CBD000010B5012232
:1012700010211348FFF745FA012211461148FFF7E4
:1012800040FA00F037F88D212A2000F091FA3E2133
:101290002B2000F08DFA1E212D2000F089FA00216C
:1012A0002C2000F085FA4021152000F081FA3D2124
:1012B000112000F07DFABDE81040FFF702B90000F0
:1012C00000080140000C01407CB50C460546072192
:1012D0000D2000F06DFA257001A823460090012230
:1012E00019460C2000F00AF810B90199102900D015
:1012F00002207CBD0F21012000F05ABA2DE9FF5FCA
:1013000000270225DDF838A016468B468146B846F0
:101310000C2805D0B9F10E0F05D11227102001E0DD
:1013200077273020804647F08001022000F040FA05
:1013300080210420FFF7D0F880210A2000F0A5F9D1
:101340000021012000F034FA002405E01BF804100D
:10135000092000F02DFA641CB442F7D3494601205D
:1013600000F026FAB9F10C0F03D180210D2000F016
:101370008CF94FF4FA66042000F0FEF80446761E5D
:1013800004D0E00702D114EA080FF4D080210D2028
:10139000FFF7A2F836B1062000F0EEF810F01B0FB0
:1013A00004D0022504B02846BDE8F09F00253C404B
:1013B000E00700D00125B9F10C0FF3D10A2000F0AD
:1013C000DBF804460C2000F0D7F810F007004FEAD5
:1013D000C40101D008390144CAF8001024B1102C0E
:1013E00004D91024002603E00124FBE7002605E0D1
:1013F000092000F0C1F803998855761CA642F7D35E
:10140000D0E700002DE9F04385B000242548009482
:10141000019402940394816941F020018161816902
:1014200001F020010491816941F004018161816929
:1014300001F004010491816941F008018161806932
:10144000DFF8648000F00800049000221F2140466D
:10145000FFF757F9DFF8549040F2FB770022394646
:101460004846FFF74EF91F2001250226CDE9000569
:10147000CDE9024669464046FFF74EF800970396CD
:10148000CDE9015469464846FFF746F84FF47040ED
:101490008DE8310069464846FFF73EF805B0BDE8E3
:1014A000F08300000010024000080140000C0140E1
:1014B0000E4810B50C4901604FF482714160002163
:1014C0008160C1604FF400720161C0E90512C16121
:1014D0000162416281620A21C162FFF713FC0028A8
:1014E00001D072B6FEE710BD003001403000002090
:1014F000FEE7FEE77047000070B5164D0446002277
:101500004FF400712846FFF7FCF804F080028021B8
:101510002846FFF7F6F804F0400240212846FFF77E
:10152000F0F804F0200220212846FFF7EAF804F042
:10153000100210212846FFF7E4F801229402214608
:101540002846FFF7DEF821462846BDE87040002215
:10155000FFF7D7B8000C014001B582B064200090BD
:10156000012301AA02A90348FFF75EFC9DF80400CD
:101570000EBD00003000002070B50C4D0446002266
:1015800010212846FFF7BDF87E2000EA440040F015
:101590008000FFF7E1FF0020FFF7DEFF0446012295
:1015A00010212846FFF7ADF8204670BD0008014025
:1015B00038B50B46009204460022802100F008F85E
:1015C000002804D0606D40F020006065032038BD25
:1015D0002DE9F8431E46914688460446089DFFF7CC
:1015E00095F8401B351AFFF791F807462548006823
:1015F000C0F3CB30684338E0701C37D0FFF786F873
:10160000C01BA84203D215B1009860B32CE020683B
:10161000416821F0E00141606068B0F5827F0BD144
:10162000A068B0F5004F02D0B0F5806F04D12068FB
:10163000016821F040010160A06AB0F5005F09D1A6
:101640002068016821F4005101602068016841F4BC
:1016500000510160012084F85100002084F85000FE
:101660000320BDE8F8830025401E009020688168B3
:1016700038EA010004D000214945BDD10020F0E73F
:101680000121F9E72C000020704770B50C46054693
:10169000FFF772FF40EA04012846BDE8704000F001
:1016A00087B8FFF739B830B58FB028216846FEF704
:1016B000BFFD14210AA8FEF7BBFD01252804CDE9D2
:1016C0000050002407946846FFF78CF908B172B601
:1016D000FEE70F200A90CDE90B540D9400210AA8D3
:1016E0000E94FFF7A3F8002801D072B6FEE70FB002
:1016F00030BD704770B5044600680169E26821F4A6
:101700004051114301612169A068084361690843A0
:101710002168CA6841F20C639A430243CA60206898
:101720004169A26921F44071114341611E49206859
:10173000884202D1FFF720F901E0FFF70DF900EB35
:10174000C00101EB0012606864218000B2FBF0F37D
:10175000B3FBF1F36FF018067343B2FBF0F5B2FB85
:10176000F0F605EB8305322303EB0515B5FBF1F528
:10177000B6FBF1F605F0F00505EB0615B2FBF0F649
:10178000B2FBF0F0B0FBF1F06FF01802504306EB43
:10179000800003EB0010B0FBF1F0216800F00F00B7
:1017A0002844886070BD000000380140FEE700005A
:1017B00070B50B4D0E460446002210212846FEF758
:1017C000A0FF7E2000EA4400FFF7C6FE3046FFF788
:1017D000C3FE2846BDE8704001221021FEF791BFEC
:1017E000000801400907090E002804DB00F1E02091
:1017F00080F80014704700F00F0000F1E02080F83E
:10180000141D7047FEF790FFFFF74DFFFFF7FAFD3D
:10181000FFF74EFE96489549002601604FF4E131EE
:10182000C0E901160C21C660C0E904618661C66189
:10183000FFF705FC08B172B6FEE7DFF83892012227
:1018400002214846FEF75DFFFFF710FDFFF794FC0D
:10185000894D002128700846FFF776FCA870681DA6
:10186000FEF7BAFC07460024A5F106084FF00A0A65
:101870000DE0514697FBF1F00AFB107097FBFAF769
:1018800098F80130641C184488F80100E4B27A48E2
:10189000401DFEF7AEFCA042EBD8DFF8DCB1DFF86C
:1018A000D0A1ABF1020B0AF1480A47463C46387812
:1018B0000528FBD2DFE800F003458EABC60000210F
:1018C0000846FFF741FCA8706CA0FFF78DFC684943
:1018D000687048312620FFF7F7FCE0706448483014
:1018E000FFF7A2FCE0709AF800205046702A07D05B
:1018F000262A05D0932A03D0B32A01D0032A19D16E
:101900004178202905D183781BB9C3780BB90379B5
:1019100013B1702A02D00DE02670C7E7B12909D1B2
:1019200081781A2906D1C178532903D19AF8040085
:10193000882801D002203FE001203DE0FEF7E1FED3
:10194000B4E7FFF7E9FBE87000210846FFF7FCFB6E
:10195000A8704EA0FFF748FC687066713046A6700C
:101960000121FFF7F1FBA87018E000BF00F0ACF810
:101970008BF8000010280ED0A1780844A07047A072
:10198000FFF732FC687060790121401CC0B26071C1
:10199000FFF7DAFBA870C820FEF7ACFD3648401D03
:1019A000FEF727FC61798842E0D8A0786178884208
:1019B00001D1032000E004202070012208214C46C0
:1019C0004846FEF79EFE1920FEF794FD00220821EE
:1019D0002046B3E7FFF7A0FBE87000210846FFF7B9
:1019E000B3FBA8702EA0FFF7FFFB687070218AF888
:1019F000001020218AF801108AF802608AF803603A
:101A00008AF804604FF4FA60FEF774FD84E7FFF78C
:101A100083FBE87000210846FFF796FBA87023A01F
:101A2000FFF7E2FB687000220221C8464846FEF735
:101A300068FE267041F28830FEF75CFD012202212B
:101A400040467BE7FFF768FBE87000210846FFF798
:101A50007BFBA87018A0FFF7C7FB687001202070FF
:101A60004FF4FA60FEF746FD20E700000038014021
:101A700088000020000C01400600002050617373B4
:101A800020796F757220636172642100456E746500
:101A9000722070617373776F72642E002A000000E9
:101AA00057726F6E672063617264210048656C6CC9
:101AB0006F204E68616E210057726F6E67207061F3
:101AC0007373776F7264210070B5012408E0012CF4
:101AD00006D0022C07D0032C08D0042C0CD108E02F
:101AE00000F014F807E000F073F804E000F0D2F81A
:101AF00001E000F031F90546102D05D100F08EF916
:101B0000641CE4B2052CE2D3284670BD2DE9F047F1
:101B1000DFF8B490002201214846FEF7F2FD2B4C7D
:101B20004FF4805529462046FEF7E6FDC0B1661405
:101B300031462046FEF7E0FDD0B14FF480484146E3
:101B40002046FEF7D9FDD0B1EF0039462046FEF71A
:101B5000D3FDD8B129462046FEF7CEFD68BB1CE078
:101B6000012211464846FEF7CCFD0120BDE8F08772
:101B7000012211464846FEF7C4FD0420F6E7012283
:101B800011464846FEF7BDFD0720EFE7012211464A
:101B90004846FEF7B6FD0E20E8E731462046FEF740
:101BA000ABFD50B941462046FEF7A6FD28B939469F
:101BB0002046FEF7A1FD0028D8D001221146484654
:101BC000FEF79FFD1020D1E700080140000C014006
:101BD0002DE9F047DFF8B490002202214846FEF7D5
:101BE00090FD2B4C4FF4805529462046FEF784FD8E
:101BF000C0B1661431462046FEF77EFDD0B14FF4E9
:101C0000804841462046FEF777FDD0B1EF003946C7
:101C10002046FEF771FDD8B129462046FEF76CFD3F
:101C200068BB1CE0012202214846FEF76AFD022043
:101C3000BDE8F087012202214846FEF762FD05203B
:101C4000F6E7012202214846FEF75BFD0820EFE798
:101C5000012202214846FEF754FD0020E8E7314604
:101C60002046FEF749FD50B941462046FEF744FDA7
:101C700028B939462046FEF73FFD0028D8D001227A
:101C800002214846FEF73DFD1020D1E70008014043
:101C9000000C01402DE9F047DFF8B4900022042148
:101CA0004846FEF72EFD2B4C4FF480552946204622
:101CB000FEF722FDC0B1661431462046FEF71CFD3A
:101CC000D0B14FF4804841462046FEF715FDD0B113
:101CD000EF0039462046FEF70FFDD8B129462046D1
:101CE000FEF70AFD68BB1CE0012204214846FEF70E
:101CF00008FD0320BDE8F087012204214846FEF7D5
:101D000000FD0620F6E7012204214846FEF7F9FC13
:101D10000920EFE7012204214846FEF7F2FC0F20DC
:101D2000E8E731462046FEF7E7FC50B94146204639
:101D3000FEF7E2FC28B939462046FEF7DDFC002814
:101D4000D8D0012204214846FEF7DBFC1020D1E761
:101D500000080140000C01402DE9F047DFF8B49085
:101D6000002208214846FEF7CCFC2B4C4FF480554E
:101D700029462046FEF7C0FCC0B166143146204615
:101D8000FEF7BAFCD0B14FF4804841462046FEF73A
:101D9000B3FCD0B1EF0039462046FEF7ADFCD8B118
:101DA00029462046FEF7A8FC68BB1CE0012208215A
:101DB0004846FEF7A6FC0A20BDE8F087012208216C
:101DC0004846FEF79EFC0B20F6E701220821484614
:101DD000FEF797FC0C20EFE7012208214846FEF7AA
:101DE00090FC0D20E8E731462046FEF785FC50B90F
:101DF00041462046FEF780FC28B939462046FEF7CA
:101E00007BFC0028D8D0012208214846FEF779FC47
:101E10001020D1E700080140000C014010B50B4C28
:101E2000012211462046FEF76CFC012202212046C9
:101E3000FEF767FC012204212046FEF762FC2046E3
:101E40000122BDE810400821FEF75BBC00080140FC
:101E500010B500290AD00878002807D00548784432
:101E6000FEF7E8FA002801D0002010BD02487844AF
:101E700010BD00006A0000006200000001020203C1
:101E80000405060708090A0B0C0D0E0F10100000C0
:101E9000000000000000010203040607080900001A
:101EA0000000010203040000D81F00080000002009
:101EB0003000000028010008082000083000002041
:101EC000100700004401000810010000430000005A
:101ED000F8FFFFFF0040404040404040404041414B
:101EE00041414140404040404040404040404040EF
:101EF0004040404040050202020202020202020289
:101F00000202020202202020202020202020200285
:101F10000202020202029090909090901010101015
:101F200010101010101010101010101010101010B1
:101F30000202020202028888888888880808080845
:101F40000808080808080808080808080808080811
:101F50000202020240000000000000000000000039
:101F60000000000000000000000000000000000071
:101F70000000000000000000000000000000000061
:101F80000000000000000000000000000000000051
:101F90000000000000000000000000000000000041
:101FA0000000000000000000000000000000000031
:101FB0000000000000000000000000000000000021
:101FC0000000000000000000000000000000000011
:101FD0000000000000000000000000000000000001
:101FE000000000313233343536373800000000004D
:101FF00000000000000000000100000010000000D0
:08200000000000000024F400C0
:04000005080000ED02
:00000001FF
